:0300000002238A4E
:0C238A00787FE4F6D8FD7581670223D14E
:102AC8007D157C03ED1D70011C144C70F7EF1F7011
:062AD800011E144E70EA1D
:012ADE0022D5
:102B0C00C0F9A4B0999282F88090FEFDFBF7EFDF3C
:022B1C00BF7F79
:03297D0001150041
:102A3E007580FFE5152F902B1693F5A074162515AE
:0E2A4E00F8E6F5800515E515B50503E4F51568
:012A5C002257
:10279000C2B2D2B37F007E007D007C0020B3FDE496
:1027A000FBD2B278011221BAC2B230B30DEF2401CC
:1027B000FFE43EFEE43DFDE43CFC0BBB18E3D2B27B
:1027C000ED6480FDECC2B278081221A774D02FFF0F
:0727D000748A3EFEE4FCFDEB
:0127D70022DF
:102AF600D2C200D2900000000000C2C20000000056
:062B060000C29000002255
:102B1E00C2C200D2900000000000D2C2000000002D
:012B2E002284
:10289E00E4FEEFA806088002C333D8FC30E704D26A
:1028AE00C28002C2C200D2900000000000C2900E90
:1028BE00BE08DF0000D2C20000D29000000030C27D
:0B28CE0004C2008002D200C290000093
:0128D90022DC
:1029FA00E4FFD2C2FE00C2900000000000D29000A4
:102A0A0000EF25E0FF30C2010F00000EBE08E6C24B
:032A1A0090000029
:012A1D002296
:102B2F00D2C2000000D2900000000000C29000004E
:012B3F002273
:1029800001110F02080000011200011000011400E3
:032990000113012F
:10000E002084037F01222085037F02222086037F26
:05001E0003227F002217
:1025040012000E8F0EE50EB50C0A60080509E509E8
:1025140070020508E50E700DE50C7009850E0AF5CC
:102524000BF508F509AF117E00D3E5099F7480F817
:10253400650898400C850E0A750B0275080075092C
:1025440064E50E701EE50C601AD3E5099FEE648005
:10255400F8E508648098500B850C0A750B01E4F5C6
:0925640008F509850E0C0226356C
:10263500E50BB4011DE50AB40318E5147014051281
:10264500E512B4040DE4F5120510E510B40203E437
:10265500F510E50BB40121E50AB4011CE514701869
:102665001512E512B4FF117512031510C3E51064B8
:102675008094805003E4F510E50BB40108E50AB435
:0B26850002036314FF122B40022A7CAA
:10286000C3E514648094805034E54E6480948040C5
:102870002CE5106F7027E5126D7022E50BB4010A8C
:10288000E50AB40105E54E1220C8E50BB4010EE5DA
:0E2890000AB40309122082C3954E1220EA22D8
:102A7C00E50BB40208E50AB40103751301E50BB4C8
:0B2A8C000208E50AB4020375E72022EF
:0F2B40007B007A007913754E01E4FDFF022860D7
:100E8400000000000000000000000000000000005E
:100E9400000000000000000000000000000000004E
:100EA400000000000000000000000000000000003E
:100EB400000000000000000000000000000000002E
:100EC4000000000000000000000000000002020614
:100ED4000C0C0800000000000000000000300000BE
:100EE40000000000000000000000000000000000FE
:100EF40000000000000000000000000000000000EE
:100F040000000000000000000000000000000000DD
:100F140000000000000000000000000000000000CD
:100F240000000000000000000000000000000000BD
:100F340000008080C0C0E0E0E0E0C0C0808000002D
:100F4400000E0F1008000000000000000000000068
:100F540000000000000000000081410101C3C14104
:100F64004141416141000000000000000000000018
:100F7400000000000000000000000000000000006D
:100F8400000000000000000080E0F0F8FCFEFEFE1F
:100F9400FE7F7E1E1E0E0E0E0E048000000000005A
:100FA400000000000000000000406070787C7E7F3C
:100FB4003F37373737373737372707010101010004
:100FC400000000000000000000000000000000001D
:100FD40000000000000000000060202020383120C4
:100FE4002040C0C0300000000000000000000000ED
:100FF40000000000000000000000000000000000ED
:101004000000000000C0FCFEFFFFFFFFFFFFFFF039
:10101400C08000000000001F1C180F060000000024
:10102400000090F0C00000FCCCF0F00001C2FCF025
:10103400E0C0C0C080E0000000000000000000002C
:101044000000000040202020808080C040404040BC
:101054000000000000000000002222020220040020
:101064000001081002080000000000000000000059
:10107400000000000000000000000000000000006C
:1010840000000000000F7FFFFFFFFFFFFFFFFFFFD7
:10109400FFFFFEF8E00000FCFEC7FBFC00000002BE
:1010A40003008787EFE7FDFFFF7FFFFFFEFFFFFFE2
:1010B400FFFFFFFFFFFFFC7C2C0400000000C0E0EA
:1010C400707C2C0682C361612100000000000000D6
:1010D4008080402000000000008030204848C88004
:1010E40050E070A82CE000000000000000000000A8
:1010F40000000000000000000000000000000000EC
:101104000000000000000001030F0F3F3F7FFFFFBE
:10111400FFFFFFFFFF7F7F7F3F3F7B7B787838189F
:10112400180F070301010100000000010103070774
:101134000F0F1F3F3F7E7EFEFEFEFE7E3E9CCCF0E8
:10114400F87E3703030100000000001008040601C4
:10115400010000000000000000080902131233100F
:101164001110111011180000000000000000000010
:10117400000000000000000000000000000000006B
:10118400000000000000000000000000000000005B
:10119400000000000000000000000000000000004B
:1011A400000000000000000000000000000000003B
:1011B400000000000000000001050C0E0717333387
:1011C40001000000008080808080C0C0C0C0C0C01A
:1011D400C0C0C0C0C000000000FE021222A242A291
:1011E4009E62826206FE0000000000000000000013
:1011F40000000000000000000000000000000000EB
:1012040000000000000000000000000000000000DA
:1012140000000000000000000000000000000000CA
:1012240000000000000000000000000000000000BA
:1012340000000000000000000000000000000000AA
:1012440000030301010121212171797979393D3D9F
:101254003F3F1F1F0D000000000F0909090A08087D
:101264000A080908080F0000000000000000000040
:10127400000000000000000000000000000000006A
:10128400000000000000000000000000000000005A
:10129400000000000000000000000000000000004A
:1012A400000000000000000000000000000000003A
:1012B400000000000000000000000000000000002A
:1012C400000000000000000000000000000000001A
:1012D400000000000000000000000000000000000A
:1012E40000000000000000000000000000000000FA
:1012F40000000000000000000000000000000000EA
:1013040000000000000000000000000000000000D9
:1013140000000000000000000000000000000000C9
:1013240000000000000000000000000000000000B9
:1013340000808080808080808080800000000000A9
:101344000000000000000000000000000000000099
:10135400000080808080C0C0C0C0C0C0C0C0C08049
:101364008080000000000000000000000000000079
:101374000000000000000000000000000000000069
:101384000000000000000000000000000000000059
:10139400000000000000000000000080C0C0E0E089
:1013A400F0F0F8F8F8FC7C7C7E3E3E3E1F1F1F0FD9
:1013B4000F0F0F8FC7EFFFFF7F3F1F0780C0E0F0C5
:1013C400F87C3C9ECEE6F0F8F8FCFCFCFEFEFEFF4A
:1013D400FF7F7F7F7F7F7F7F3F3F3F3F3FFFFFFF59
:1013E400FFFF7F3F0E00000000000000000000002F
:1013F40000000000000000000000000000000000E9
:1014040000000000000000000000000000000000D8
:101414000000000000000000181E1F1F1F0F0F0710
:10142400070703030000000080C0C0E0F0F0783C30
:10143400BE9E8F87C7E3F1F0F8FCBE9F0F07030140
:101444001C3E3F3F3F1F0F0D0D0400000000000035
:10145400000000000080C0E0F0F87C3E1F0F07038E
:101464000100000000000000000000000000000077
:101474000000000000000000000000000000000068
:101484000000000000000000000000000000000058
:1014940000000000000000000060F0F8FCFCFCFC10
:1014A400FCFCFC7E7E7E7F7F7F7F7FFFFFFFFFFF54
:1014B400FF7F3F3F3F1F1F1F0F070703010000006F
:1014C40000006070707878787878FCFCFCFCFCFC98
:1014D400FC7C7E7E7F3F3F1F0D0400000000000067
:1014E40000000000000000000000000000000000F8
:1014F40000000000000000000000000000000000E8
:1015040000000000000000000000000000000000D7
:101514000000000000000070787C7C3E1F0F070371
:1015240001010000000070787C7E3F1F0F0703015B
:101534000000000000000000000000008080C0C027
:10154400E0E0E0F0F0783C3C1E1F0F0707030101C8
:101554000000000000000000000000000000000087
:101564000000000000000000000000000000000077
:101574000000000000000000000000000000000067
:101584000000000000000000000000000000000057
:101594000000000000000000000000000000000047
:1015A4000000000000000000000000000000000037
:1015B40000000000000000081C1E1E0F0F07070398
:1015C4000301010000000000000000000000000012
:1015D4000000000000000000000000000000000007
:1015E40000000000000000000000000000000000F7
:1015F40000000000000000000000000000000000E7
:1016040000000000000000000000000000000000D6
:1016140000000000000000000000000000000000C6
:1016240000000000000000000000000000000000B6
:1016340000000000000000000000000000000000A6
:101644000000000000000000000000000000000096
:101654000000000000000000000000000000000086
:101664000000000000000000000000000000000076
:101674000000000000000000000000000000000066
:03299300015800E8
:1021CD001222DA1229AC7524087525FF75261275B1
:1021DD0027847B80E4FDFF1225D3E4FB7D067F5B26
:1021ED0012281D7B017D067F6D12281D7FDC7E056B
:1021FD00122AC81229AC7B02E4FDFF12281D7B03B5
:10220D00E4FD7F1212281D7B04E4FD7F2412281D9E
:10221D007B07E4FD7F3612281D7B08E4FD7F481205
:10222D00281D7B09E4FD7F5A12281D122B5E7F6449
:10223D007E00122AC87B027D02E4FF12281D7B035B
:10224D007D027F1212281D7B047D027F2412281D22
:10225D007B0A7D027F3612281D7B0B7D027F481283
:10226D00281D122B4F7F647E00122AC87B0C7D0423
:10227D00E4FF12281D7B0D7D047F1212281D7B0E9D
:10228D007D047F2412281D7B0F7D047F3612281DAF
:10229D00D28CD28ED2A9D2AF7F647E00122AC87B97
:1022AD00107D06E4FF12281D7B117D067F1212287A
:1022BD001D7B127D067F2412281D7B137D067F3624
:0D22CD0012281D7F647E00122AC80229AC71
:102690001221CD7FC87E00122AC8855D59855E5AF9
:1026A0007FC87E00122AC8855D59855E5AE513B43D
:1026B000010EC2AF1227908E598F5AD2AFE4F51394
:1026C000E558B4010375E760C2AF1227908E5D8FA5
:1026D0005ED2AFC3E55E955AF55CE55D9559F55B55
:0A26E000F500855C00122B6880C332
:100026000000000000000000002F00000000070094
:10003600070000147F147F1400242A7F2A1200620E
:1000460064081323003649552250000005030000BA
:1000560000001C224100000041221C000014083E42
:1000660008140008083E0808000000A06000000808
:10007600080808080000606000000020100804025C
:10008600003E5149453E0000427F4000004261511A
:100096004946002141454B31001814127F100027B4
:1000A60045454539003C4A49493000017109050377
:1000B60000364949493600064949291E00003636A8
:1000C600000000005636000000081422410000140B
:1000D60014141414000041221408000201510906E8
:1000E60000324959513E007C1211127C007F494969
:1000F6004936003E41414122007F4141221C007F9A
:1001060049494941007F09090901003E4149497AA7
:10011600007F0808087F0000417F41000020404121
:100126003F01007F08142241007F40404040007F8D
:10013600020C027F007F0408107F003E4141413ED1
:10014600007F09090906003E4151215E007F091919
:1001560029460046494949310001017F0101003F16
:100166004040403F001F2040201F003F4038403F96
:1001760000631408146300070870080700615149FA
:10018600454300007F41410000552A552A5500008D
:1001960041417F000004020102040040404040400B
:1001A600000001020400002054545478007F4844A3
:1001B600443800384444442000384444487F0038DA
:1001C6005454541800087E0901020018A4A4A47C03
:1001D600007F080404780000447D400000408084CD
:1001E6007D00007F102844000000417F4000007C15
:1001F60004180478007C0804047800384444443821
:1002060000FC242424180018242418FC007C08046C
:10021600040800485454542000043F444020003C45
:100226004040207C001C2040201C003C4030403CCC
:10023600004428102844001CA0A0A07C004464545C
:100246004C441414141414140000000000000000A0
:100256000000000000000000000000F800000000A0
:10026600000000333000000000100C06100C0600E1
:10027600000000000000000040C07840C078400048
:10028600043F04043F040400007088FC08300000AA
:10029600001820FF211E0000F008F000E018000002
:1002A60000211C031E211E0000F0088870000000BB
:1002B6001E2123241927211010160E00000000000D
:1002C6000000000000000000000000E0180402002A
:1002D600000000071820400000020418E00000009B
:1002E6000040201807000000404080F08040400099
:1002F6000202010F01020200000000F000000000EF
:100306000101011F010101000000000000000000C2
:1003160080B0700000000000000000000000000037
:1003260000010101010101010000000000000000C0
:10033600003030000000000000000000806018045B
:10034600006018060100000000E010080810E00038
:10035600000F102020100F00001010F80000000001
:100366000020203F20200000007008080888700048
:1003760000302824222130000030088888483000C8
:100386000018202020110E000000C02010F80000E8
:1003960000070424243F240000F808888808080081
:1003A6000019212020110E0000E010888818000096
:1003B600000F112020110E0000380808C838080068
:1003C6000000003F000000000070880808887000E8
:1003D600001C222121221C0000E010080810E00069
:1003E6000000312222110F00000000C0C0000000F2
:1003F6000000003030000000000000800000000017
:10040600000080600000000000008040201008000E
:1004160000010204081020004040404040404000D7
:1004260004040404040404000008102040800000B2
:100436000020100804020100007048080808F000B7
:100446000000003036010000C030C828E810E00087
:100456000718272423140B000000C038E000000012
:10046600203C23020227382008F88888887000007C
:10047600203F202020110E00C03008080808380050
:10048600071820202010080008F808080810E000C7
:10049600203F202020100F0008F88888E808100068
:1004A600203F20202320180008F88888E80810003C
:1004B600203F200003000000C03008080838000074
:1004C60007182020221E020008F808000008F80875
:1004D600203F210101213F20000808F808080000FC
:1004E6000020203F2020000000000808F80808002F
:1004F600C08080807F00000008F888C028180800A7
:10050600203F20012638200008F8080000000000DF
:10051600203F20202020300008F8F800F8F80800D6
:10052600203F003F003F200008F830C00008F808D0
:10053600203F200007183F00E01008080810E000E0
:100546000F10202020100F0008F808080808F000F7
:10055600203F210101010000E01008080810E0001A
:100566000F18242438504F0008F8888888887000AF
:10057600203F2000030C302000708808080838004F
:100586000038202121221C00180808F80808180045
:100596000000203F2000000008F808000008F808C6
:1005A600001F202020201F000878880000C8380877
:1005B600000007380E010000F80800F80008F800EF
:1005C600033C0700073C0300081868808068180889
:1005D60020302C03032C30200838C800C838080007
:1005E6000000203F2000000010080808C838080056
:1005F6002038262120201800000000FE02020200FA
:100606000000007F40404000000C30C000000000A9
:10061600000000010638C00000020202FE000000D1
:10062600004040407F000000000004020202040077
:1006360000000000000000000000000000000000B4
:10064600808080808080808000020204000000009C
:100656000000000000000000000080808080000094
:100666000019242222223F2008F800808000000082
:10067600003F112020110E00000000808080000045
:10068600000E112020201100000000808088F80054
:10069600000E112020103F20000080808080000086
:1006A600001F222222221300008080F088888818EA
:1006B6000020203F202000000000808080808000F5
:1006C600006B94949493600008F80080808000008A
:1006D600203F210000203F20008098980000000065
:1006E6000020203F20200000000000809898000095
:1006F60000C08080807F000008F8000080808000B5
:10070600203F24022D302000000808F800000000D9
:100716000020203F20200000808080808080800094
:10072600203F20003F20003F808000808080000026
:10073600203F210000203F200000808080800000B4
:10074600001F202020201F008080008080000000E5
:1007560080FFA12020110E00000000808080800014
:10076600000E112020A0FF80808080008080800005
:1007760020203F2120000100000080808080800032
:100786000033242424241900008080E080800000A7
:100796000000001F202000008080000000808000F4
:1007A600001F202020103F20808080000080808055
:1007B60000010E30080601008080008000808080E5
:1007C6000F300C030C300F0000808000808080000A
:1007D6000020312E0E312000808080000080808035
:1007E60080818E70180601000080808080808000E5
:1007F6000021302C2221300000000000807C020203
:1008060000000000003F404000000000FF00000024
:1008160000000000FF0000000002027C80000000D3
:100826000040403F000000000006010102020404EF
:1008360000000000000000002424A4FEA3220022E1
:10084600CC0000FF000000000000000000000000D7
:100856000000000000000000080601FF000104047B
:10086600040404FF02020200000000000000000071
:100876000000000000000000101010FF1090088813
:100886008888FF88888808000000000000000000B3
:1008960000000000000000000444827F01808040C8
:1008A600432C102846818000000000000000000054
:1008B6000000000000000000080889EA188800040B
:1008C60004FC040404FC000000000000000000001A
:1008D6000000000000000000020100FF0186402029
:1008E60018074080403F00000000000000000000A4
:1008F60000000000000000001010F01F10F0004083
:10090600E05847405060C0000000000000000000B2
:10091600000000000000000040221508162100001B
:10092600FE42424242FE00000000000000000000BD
:100936000000000000000000008060F807000000D2
:10094600FF40201008040000000000000000000026
:100956000000000000000000010000FF000402018A
:100966003F4040404040780000000000000000008A
:100976000000000000000000002020A86C2A392892
:10098600A82A6CA82020000000000000000000003B
:10099600000000000000000002828190924A494552
:1009A60024221008010202000000000000000000DE
:1009B600000000000000000090523410FF10345276
:1009C60080708F0808F80800000000000000000092
:1009D6000000000000000000829A566322528E003A
:1009E6008040330C3340800000000000000000000F
:1009F6000000000000000000100C4444444445C6BA
:100A06004444444444140C0000000000000000006C
:100A160000000000000000008040201E2040407FB3
:100A260044444444444040000000000000000000EC
:100A3600000000000000000000FC848484FC00101C
:100A460010101010FF101000000000000000000041
:100A56000000000000000000003F1010103F0000E2
:100A6600010640807F00000000000000000000003A
:100A7600000000000000000080809E9292929EE09E
:100A8600809EB2D2929E800000000000000000000E
:100A960000000000000000000808F4949292F100A3
:100AA60001F2929494F80800000000000000000093
:100AB600000000000000000000003C24242424FF65
:100AC600242424243C000000000000000000000054
:100AD6000000000000000000001F0909090909FFC5
:100AE60009090909091F00000000000000000000B4
:100AF60000000000000000000000FC0404040404E0
:100B060004040404FC0000000000000000000000D3
:100B1600000000000000000000007F2020202020B0
:100B2600202020207F0000000000000000000000C0
:100B36000000000000000000101010FF10900404D8
:100B46000404FC040404040000000000000000008B
:100B560000000000000000000444827F0100000045
:100B660040807F0000000000000000000000000040
:100B7600000000000000000080828282FE828282E5
:100B86008282FE8282828000000000000000000057
:100B96000000000000000000008040300F00000050
:100BA6000000FF0000000000000000000000000040
:100BB60000000000000000000000F010101010FF00
:100BC60010101010F00000000000000000000000EF
:100BD600000000000000000000000F04040404FFF1
:100BE600040404040F0000000000000000000000E0
:100BF600000000000000000000FC2024A8FFA8243C
:100C060000FC4444C4424000000000000000000014
:100C16000000000000000000003F2221202F20A33A
:100C2600601F0000FF000000000000000000000040
:100C36000000000000000000404042CC0080888890
:100C4600FF8888FF88888000000000000000000000
:100C560000000000000000000040201F2040504C13
:100C66004340405F4040400000000000000000009C
:100C76000000000000000000000000000001E21C6F
:100C8600E00000000000000000000000000000007E
:100C96000000000000000000804020100C0300004F
:100CA60000030C30408080000000000000000000BF
:100CB6000000000000000000000022322AA6A26206
:100CC6002111098101000000000000000000000061
:100CD6000000000000000000004222130B42827E4A
:100CE60002020A1223460000000000000000000075
:100CF60000000000000000002030AC63300088C80F
:100D0600A8998E88A8C8880000000000000000008E
:100D1600000000000000000022672212128040300E
:100D26000F00003F4040710000000000000000007E
:100D360000000000000000004042CC0000FE82924D
:100D460092FE929282FE0000000000000000000069
:100D5600000000000000000000003F10887F001E19
:100D66001212125E807F00000000000000000000EA
:100D76000000000000000000100C05555555857F49
:100D86008555555505140C000000000000000000B4
:100D960000000000000000000404020A09292A4C91
:100DA60048A9190202040400000000000000000027
:100DB6000000000000000000080889EA1888000406
:100DC60004FC040404FC0000000000000000000015
:100DD6000000000000000000020100FF0186402024
:100DE60018074080403F000000000000000000009F
:100DF6000000000000000000008060F80704E4A482
:100E0600A4BFA4A4E4040000000000000000000049
:100E16000000000000000000010000FF40407F4A83
:100E26004A4A4A4A7F404000000000000000000095
:100E36000000000000000000001010101010FF104D
:100E460010101010F000000000000000000000006C
:100E5600000000000000000000804020180601008D
:100E6600204080403F00000000000000000000001D
:0E0E760000000000000000000000000000006E
:10291400F583E5822CF582E43583F583E493FF7D2A
:0129240001B1
:10292500ED6004D2918002C291C295E4FEC294EF9B
:1029350030E704D2938002C293D294EF25E0FF0ED4
:07294500BE08EAD295D29111
:01294C002268
:102A1E00AC07ED24B0FFE4FD122925EC54F0C454AC
:102A2E000F4410FF122925EC540F4401FF022925F3
:1029AC00E4FCEC24B0FFE4FD122925E4FF122925F8
:1029BC007F10122925E4FB7D01E4FF1229250BBBB6
:0629CC0080F50CBC08DCE4
:0129D20022E2
:06256D00AA07A905AF0357
:10257300E4FCEF24E0FBEAD3947F4004E4FA090986
:10258300AF02AD01122A1EE4FC75F010EBA42CF58A
:1025930082E435F0F583E582244EF582E583340247
:1025A30012291E0CBC08E2AF02E904FD122A1EE444
:1025B300FC75F010EBA42CF582E435F0F583E5828D
:1025C3002456F582E583340212291E0CBC08E2224C
:042AB0008F65A90580
:102AB4007F017E00AD0119ED6009AD657C00122037
:032AC400FC80F1A2
:012AC70022EC
:082490008F4F8D508A518B52D1
:10249800E4F557F555E555C39553505FC3E5539596
:1024A8005514FD7F0A122AB0AC51AD52CFCDCFCE14
:1024B800CCCE12210E7C007D0A12210E8D56E557D6
:1024C8007020E55314FFE555C39F5016E556700F6D
:1024D800E554C3138555F0A4254FFF7B2080137561
:1024E8005701E554C3138555F0A4254FFFE556243D
:0B24F80030FBAD5012256D0555809A99
:0125030022B5
:1026EA002430F53E753F20754020754120E4F542BF
:0926FA00FB7A00793DAD24AF2309
:0A2703008F438D448B458A468947B9
:10270D00E4F548AB45AA46A9478548827583001272
:10271D00209BFB601DAD44AF4312256D740825430E
:10272D00F543D394784007E4F54305440544054843
:02273D0080D149
:01273F002277
:04281D00AA07A90558
:10282100E4F523122A1EE4FC75F040EBA4243EF5E6
:1028310082E5F0340812291405230CBC10EAAF021A
:10284100E904FD122A1EE4FC75F040EBA4245EF5B8
:0E28510082E5F0340812291405230CBC10EAAD
:01285F002256
:0425D3008F218B23A6
:1025D700E4F528F529E5245407700BE524131313B4
:1025E700541FF52A800AE524131313541F04F52AF0
:1025F7008D2AE52AC395245034AD2AAF21122A1E0D
:10260700AC21ECC395235021AB25AA26A927052980
:10261700E529AE287002052814F5828E8312209BC7
:0D262700FF7D011229250C80D9052A80C5F0
:012634002283
:1022DA00D2927F647E00122AC8C2927F647E001264
:1022EA002AC8D292E4FD7FAE122925E4FF122925DD
:1022FA007F101229257F401229257F811229257FE7
:10230A00CF1229257FA11229257FC81229257FA648
:10231A001229257FA81229257F3F1229257FD3124A
:10232A002925E4FF1229257FD51229257F80122924
:10233A00257FD91229257FF11229257FDA1229252D
:10234A007F121229257FDB1229257F401229257F3A
:10235A00201229257F021229257F8D1229257F1413
:10236A001229257FA41229257FA61229257FAF12BB
:10237A0029257FAF1229251229ACE4FDFF022A1E66
:081684008F238D248A258B269B
:10168C00E4F52FF530F531F532F533F534F535F564
:10169C0036F537F538F539F53AF53BF53C783D7CC0
:1016AC0000FD7BFF7A0E797EFE7F0612205CE5261C
:1016BC0045257012753D30753E20753F20754020D4
:1016CC007541201226F8C3E52564809480400302FE
:1016DC001A27C3E49526FDE49525FC121ED28F2E05
:1016EC008E2D8D2C8C2B753D2D7F007EC07D797CB5
:1016FC0044AB2EAA2DA92CA82B121E546002500309
:10170C0002187E7F007E407D1C7C46AB2EAA2DA944
:10171C002CA82B121E54400302187EE4FBFA797A93
:10172C007844AF2EAE2DAD2CAC2B121DB7121F0B67
:10173C008E318F327C037DE81220FCAC06AD07E4C1
:10174C00121ED2A804A905AA06AB07AF2EAE2DAD6A
:10175C002CAC2B121CBFE4FBFA79C87842121DB7D3
:10176C00121F0B8E338F34AE31AF327C037DE812F7
:10177C0020FCAC06AD07E4121ED2A804A905AA06EB
:10178C00AB07AF2EAE2DAD2CAC2B121CBFC004C0C2
:10179C0005C006C007AE33AF347C007D641220FC5C
:1017AC00AC06AD07E4121ED2A804A905AA06AB0725
:1017BC00D007D006D005D004121CBFE4FBFA792068
:1017CC007841121DB7121F0B8E358F36AE31AF32EA
:1017DC007C037DE81220FCAC06AD07E4121ED2A8F7
:1017EC0004A905AA06AB07AF2EAE2DAD2CAC2B125F
:1017FC001CBFC004C005C006C007AE33AF347C00AC
:10180C007D641220FCAC06AD07E4121ED2A804A91C
:10181C0005AA06AB07D007D006D005D004121CBF12
:10182C00C004C005C006C007AE35AF367C007D0ACB
:10183C001220FCAC06AD07E4121ED2A804A905AA1E
:10184C0006AB07D007D006D005D004121CBF121F60
:10185C000B8E378F38753D2DE5322430F53EE5344F
:10186C002430F53FE5362430F540EF2430F54112B5
:10187C0026F7E4FFFE7DC67C42AB2EAA2DA92CA830
:10188C002B121E546002500302196CE4FFFE7D7A89
:10189C007C44AB2EAA2DA92CA82B121E544003025B
:1018AC00196CE4FBFA79C87842AF2EAE2DAD2CAC96
:1018BC002B121DB7121F0B8E338F347C007D6412DC
:1018CC0020FCAC06AD07E4121ED2A804A905AA069A
:1018DC00AB07AF2EAE2DAD2CAC2B121CBFE4FBFA1C
:1018EC0079207841121DB7121F0B8E358F36AE330F
:1018FC00AF347C007D641220FCAC06AD07E4121EF4
:10190C00D2A804A905AA06AB07AF2EAE2DAD2CAC00
:10191C002B121CBFC004C005C006C007AE35AF36C5
:10192C007C007D0A1220FCAC06AD07E4121ED2A886
:10193C0004A905AA06AB07D007D006D005D004121F
:10194C001CBF121F0B8E378F38753D2DE53424309C
:10195C00F53EE5362430F53FEF2430F5401226F401
:10196C00E4FFFE7D107C41AB2EAA2DA92CA82B12D6
:10197C001E5460694067E4FFFE7DC87C42AB2EAA12
:10198C002DA92CA82B121E545053E4FBFA79207865
:10199C0041AF2EAE2DAD2CAC2B121DB7121F0B8EE2
:1019AC00358F367C007D0A1220FCAC06AD07E412A4
:1019BC001ED2A804A905AA06AB07AF2EAE2DAD2CDE
:1019CC00AC2B121CBF121F0B8E378F38753D2DE5BB
:1019DC00362430F53EEF2430F53F1226F1E4FFFEBD
:1019EC007D807C3FAB2EAA2DA92CA82B121E544017
:1019FC002AE4FFFE7D207C41AB2EAA2DA92CA82B1E
:101A0C00121E545016AF2EAE2DAD2CAC2B121F0B3C
:101A1C008E378F38753D2DEF1226EAC3E52564808D
:101A2C0094804015E5269526FDE5259525FC121E8E
:101A3C00D28F2A8E298D288C27E4FFFEFDFCAB2A41
:101A4C00AA29A928A827121E546003021CBBD3E59F
:101A5C0026940FE525648094A75003021B2CAE2519
:101A6C00AF267C277D101221638E2F8F307C277D33
:101A7C00101220FCAA06AB07C3E5269BFFE5259AAE
:101A8C00FE7C037DE812210E8E318F32C3E5269B3E
:101A9C00FBE5259AFA7C037DE81220FCC3EB9FFF43
:101AAC00EA9EFE7C007D6412210E8E338F34AE31A3
:101ABC00AF327C037DE81220FCC3EB9FFBEA9EFA5D
:101ACC00AE33AF347C007D641220FCC3EB9FFFEA85
:101ADC009EFE7D0A12210E8E358F36AE33AF347CCE
:101AEC00007D641220FCC3EB9FFBEA9EFAAE35AF7F
:101AFC00367D0A1220FCC3EB9FF538EA9EF537E5DC
:101B0C00302430F53DE5322430F53EE5342430F513
:101B1C003FE5362430F540E5382430F5411226F700
:101B2C00D3E52694E7E525648094835003021BD803
:101B3C00E5269410E525648094A74003021BD8AEDB
:101B4C0025AF267C037DE81221638E318F327C0316
:101B5C007DE81220FCAA06AB07C3E5269BFFE52512
:101B6C009AFE7C007D6412210E8E338F34C3E526E1
:101B7C009BFBE5259AFA7C007D641220FCC3EB9F4D
:101B8C00FFEA9EFE7D0A12210E8E358F36AE33AFE4
:101B9C00347C007D641220FCC3EB9FFBEA9EFAAE02
:101BAC0035AF367D0A1220FCC3EB9FF538EA9EF563
:101BBC0037E5322430F53DE5342430F53EE5362466
:101BCC0030F53FE5382430F5401226F4D3E5269461
:101BDC0063E525648094804066E52694E8E52564F9
:101BEC00809483505AAE25AF267C007D641221630D
:101BFC008E338F347C007D641220FCAA06AB07C3A5
:101C0C00E5269BFFE5259AFE7D0A12210E8E358F67
:101C1C0036C3E5269BFBE5259AFA7C007D0A12204B
:101C2C00FCC3EB9FF538EA9EF537E5342430F53DDF
:101C3C00E5362430F53EE5382430F53F1226F1D355
:101C4C00E5269409E525648094804038E526946463
:101C5C00E52564809480502CAE25AF267C007D0A4F
:101C6C001221638E358F367C007D0A1220FCC3E571
:101C7C00269FF538E5259EF537E5362430F53DE50C
:101C8C00381226EAC3E5269401E525648094804049
:101C9C001EE526940AE5256480948050128525372C
:0F1CAC00852638E5382430F53D753E201226EEAA
:011CBB002206
:042B710020003E0002
:10299600015F000160030161000162000163000143
:0229A6006400CB
:092B6800122A97122740022416DC
:102740000562E562D394144003E4F562E51225E0E6
:10275000F5617BFF7A2B7971AD60E4FF122703C32B
:10276000E51464809480500EE562940A40087BFF73
:102770007A2B797180067BFF7A2B7973AD61E4FF48
:0F278000122703E55F65616003855F6085615F18
:01278F002227
:102A9700E510656360031229AC851063E510656472
:082AA70060031229AC851064E4
:012AAF002204
:10241600E4F521F522E51070597B14FD7F0A122898
:102426001D7B15E4FD7F1C12281DE513FB3395E08B
:10243600FAE4FD7F461216847B167D027F0A122877
:102446001D7B177D027F1C12281DAB5AAA597D02DF
:102456007F461216847B187D047F0A12281D7B177F
:102466007D047F1C12281DAB5CAA5B7D047F46128F
:102476001684E510B401127B147D027F0A12281D12
:092486007B157D027F1C12281D4C
:01248F00222A
:0329A800016600C5
:0A2B5E00438901758CEE758A01228F
:102A5D00E5667003122504E566B40107AF5CAE5B55
:0E2A6D0012294DAF660566EFB40103E4F5666D
:012A7B002238
:03000B000227D8F1
:1027D800C0E0C0F0C083C082C0D075D000C000C0C7
:1027E80001C002C003C004C005C006C007C28C7582
:1027F8008CEE758A01D28C122A5DD007D006D005DE
:10280800D004D003D002D001D000D0D0D082D08361
:05281800D0F0D0E03219
:0228DA008F1E4F
:1028DC00122AF67F9012289E2000037F0022E51E0C
:1028EC004440FF12289E2000037F0022122AF67F0C
:1028FC009112289E2000037F00221229FA8F1F12AA
:07290C002B2F122B1EAF1F41
:0129130022A1
:1029D3008F67122AF67F9012289E200002C3227F5F
:1029E3004012289E200002C322AF6712289E2000B7
:0729F30002C322122B1E2279
:0F2B4F00759850438920438780758DFAD2AC2248
:080003008F993099FDC299228A
:03002300022ADFCF
:092ADF00C0E0C0D075D000C007B2
:072AE800309804C298AF9979
:072AEF00D007D0D0D0E03287
:10294D00AD07AC067F481200037F58120003C3EC9D
:10295D0064809480500BC3E49DFDE49CFC7F2D802E
:10296D00027F2B120003ECFF120003AF05020003E0
:101CBC00021F77E86480F8E933E83360110460F0C0
:101CCC00ED33EC337009E8FCE9FDEAFEEBFF22048E
:101CDC0060DED3EB9FEA9EE99DE8C2E78CF0C2F789
:101CEC0095F0400CE8CCF8E9CDF9EACEFAEBCFFB55
:101CFC00121F4285D0F05804700320D5B3E804704D
:101D0C00075002B2D5021F8192D5EC0460F7E4CCE7
:101D1C00C0E0C398F8603B94186008400DD0E0FB1D
:101D2C00021F59E4FBFAC9FC8028E830E406E4C938
:101D3C00FBE4CAFCE830E305E4C9CACBFCE8540771
:101D4C006010F8C3E913F9EA13FAEB13FBEC13FC7C
:101D5C00D8F130F52FC3E49CFCEF9BFFEE9AFEED1F
:101D6C0099FDD0E0FBEF4E4D4C701222DB03021FAD
:101D7C007EEC2CFCEF33FFEE33FEED33FDED30E764
:101D8C00EB021F59EF2BFFEE3AFEED39FDD0E0FBD5
:101D9C0050130BBB0003021F81ED13FDEE13FEEF7E
:081DAC0013FFEC13FC021F59A8
:101DB400021F81EC5D046005E859047003021F777B
:101DC400121F42580460F6EC4860F2EC7004FDFE09
:101DD400FF22C860DB2481C85009C3986002500602
:101DE400021F7E9850CAF582E9294B4A7005AB82DE
:101DF400021F6D75F0007C1A7880C3EF9BEE9AED9C
:101E040099400DC3EF9BFFEE9AFEED99FDE842F079
:101E1400DC23ACF0D0E0FFD0E0FED0E0FDAB8220CC
:101E2400E7101BEB60BAEC2CFCEF33FFEE33FEED56
:101E340033FD021F59E803F830E705C0F075F000E0
:101E4400EF2FFFEE33FEED33FD40B830E7C280AA3A
:101E540074F8CC6480CCC86480C8F58204604FC335
:101E6400EB9FF5F0EA9E42F0E99D42F0E89C45F0D4
:101E7400603C501DE5825FFFE582D313CB5BCBF45E
:101E84002B5582FB50280ABA002409B90020088087
:101E94001DE5825BFBE582D313CF5FCFF4C3132F21
:101EA4005582FF50090EBE00050DBD00010CC3EBA9
:101EB4009FF5F0EA9E42F0E99D42F0E89C45F0600F
:091EC40007CC4820E701B3EC2231
:101ECD0075F020800E75F010800575F0087D007E90
:101EDD00007F003392D530D503122199EC33401099
:101EED00EF33FFEE33FEED33FDEC33FCD5F0ED2299
:0E1EFD00E5F0247EA2D513CC92E7CDCEFF22D5
:101F0B00EDD2E7CD33EC3392D524814006E4FFFECE
:101F1B00FDFC22FCE4CFCECDCC24E0501174FF802D
:101F2B00EDC3CC13CCCD13CDCE13CECF13CF0470CA
:071F3B00F030D5DE02219910
:101F4200E9D2E7C933E833F892D5EDD2E7CD33ECE5
:071F520033FC5002B2D5225E
:101F5900EC30E7100FBF000C0EBE00080DBD0004E9
:101F69000BEB6014A2D5EB13FCED92E7FD2274FF95
:101F7900FCFDFEFF22E480F8A2D574FF13FC7D80EE
:031F8900E480EF02
:10239600022690E493A3F8E493A34003F68001F2A7
:1023A60008DFF48029E493A3F85407240CC8C33348
:1023B600C4540F4420C8834004F456800146F6DF17
:1023C600E4800B010204081020408090297DE47E01
:1023D600019360BCA3FF543F30E509541FFEE4930C
:1023E600A360010ECF54C025E060A840B8E493A3D3
:1023F600FAE493A3F8E493A3C8C582C8CAC583CAFE
:10240600F0A3C8C582C8CAC583CADFE9DEE780BEB5
:0129AB00002B
:101F8C00E709F608DFFA8046E709F208DFFA803E37
:101F9C0088828C83E709F0A3DFFA8032E309F60824
:101FAC00DFFA8078E309F208DFFA807088828C838C
:101FBC00E309F0A3DFFA806489828A83E0A3F60840
:101FCC00DFFA805889828A83E0A3F208DFFA804C1A
:101FDC0080D280FA80C680D4806980F280338010F1
:101FEC0080A680EA809A80A880DA80E280CA80335A
:101FFC0089828A83ECFAE493A3C8C582C8CCC583D2
:10200C00CCF0A3C8C582C8CCC583CCDFE9DEE780A1
:10201C000D89828A83E493A3F608DFF9ECFAA9F020
:10202C00EDFB2289828A83ECFAE0A3C8C582C8CC76
:10203C00C583CCF0A3C8C582C8CCC583CCDFEADE8F
:10204C00E880DB89828A83E493A3F208DFF980CCF1
:10205C0088F0EF60010E4E60C388F0ED2402B404EA
:10206C000050B9F582EB2402B4040050AF23234591
:06207C008223901FDC73BB
:10208200BB010689828A83E0225002E722BBFE025C
:09209200E32289828A83E493228F
:10209B00BB010CE58229F582E5833AF583E02250FA
:1020AB0006E92582F8E622BBFE06E92582F8E22244
:0D20BB00E58229F582E5833AF583E493225E
:1020C800BB010989828A83F8E028F022500327F7A8
:1020D80022BBFE05F8E328F3228A838982F8E49379
:0220E8002822AC
:1020EA00BB010689828A83F0225002F722BBFE01D5
:0220FA00F322CF
:1020FC00EF8DF0A4A8F0CF8CF0A428CE8DF0A42EF8
:02210C00FE22B1
:10210E00BC000BBE0029EF8DF084FFADF022E4CCB5
:10211E00F875F008EF2FFFEE33FEEC33FCEE9DEC7E
:10212E00984005FCEE9DFE0FD5F0E9E4CEFD22EDC4
:10213E00F8F5F0EE8420D21CFEADF075F008EF2F0E
:10214E00FFED33FD4007985006D5F0F222C398FDFF
:05215E000FD5F0EA229C
:10216300C2D5EC30E709B2D5E4C39DFDE49CFCEE97
:1021730030E715B2D5E4C39FFFE49EFE12210EC3E0
:10218300E49DFDE49CFC800312210E30D507C3E4DB
:062193009FFFE49EFE2206
:0E219900C3E49FFFE49EFEE49DFDE49CFC2257
:1021A700E8600FECC313FCED13FDEE13FEEF13FF16
:0321B700D8F1223A
:1021BA00E8600FEFC333FFEE33FEED33FDEC33FC83
:0321CA00D8F12227
:00000001FF
